{
  "contractName": "Monitor",
  "abi": [
    {
      "constant": true,
      "inputs": [
        {
          "name": "",
          "type": "address"
        },
        {
          "name": "",
          "type": "uint256"
        }
      ],
      "name": "Flows_id",
      "outputs": [
        {
          "name": "",
          "type": "uint256"
        }
      ],
      "payable": false,
      "stateMutability": "view",
      "type": "function"
    },
    {
      "inputs": [],
      "payable": false,
      "stateMutability": "nonpayable",
      "type": "constructor"
    },
    {
      "constant": false,
      "inputs": [
        {
          "name": "_monitor",
          "type": "address"
        }
      ],
      "name": "Set_Monitor",
      "outputs": [],
      "payable": false,
      "stateMutability": "nonpayable",
      "type": "function"
    },
    {
      "constant": false,
      "inputs": [
        {
          "name": "_host",
          "type": "string"
        },
        {
          "name": "_destiny",
          "type": "string"
        },
        {
          "name": "_protocol",
          "type": "uint256"
        },
        {
          "name": "_hport",
          "type": "uint256"
        },
        {
          "name": "_dport",
          "type": "uint256"
        }
      ],
      "name": "New_Flow",
      "outputs": [],
      "payable": false,
      "stateMutability": "nonpayable",
      "type": "function"
    },
    {
      "constant": true,
      "inputs": [],
      "name": "Get_Flow_Id",
      "outputs": [
        {
          "name": "",
          "type": "uint256[]"
        }
      ],
      "payable": false,
      "stateMutability": "view",
      "type": "function"
    },
    {
      "constant": true,
      "inputs": [
        {
          "name": "_id",
          "type": "uint256"
        }
      ],
      "name": "Get_Flow",
      "outputs": [
        {
          "name": "",
          "type": "uint256"
        },
        {
          "name": "",
          "type": "string"
        },
        {
          "name": "",
          "type": "string"
        },
        {
          "name": "",
          "type": "uint256"
        },
        {
          "name": "",
          "type": "uint256"
        },
        {
          "name": "",
          "type": "uint256"
        },
        {
          "name": "",
          "type": "uint256"
        },
        {
          "name": "",
          "type": "uint256"
        },
        {
          "name": "",
          "type": "uint256"
        },
        {
          "name": "",
          "type": "uint256"
        },
        {
          "name": "",
          "type": "uint256"
        }
      ],
      "payable": false,
      "stateMutability": "view",
      "type": "function"
    },
    {
      "constant": true,
      "inputs": [],
      "name": "Get_Flow_Qnt",
      "outputs": [
        {
          "name": "",
          "type": "uint256"
        }
      ],
      "payable": false,
      "stateMutability": "view",
      "type": "function"
    }
  ],
  "bytecode": "0x608060405234801561001057600080fd5b5033600260006101000a81548173ffffffffffffffffffffffffffffffffffffffff021916908373ffffffffffffffffffffffffffffffffffffffff1602179055506000600481905550610da6806100696000396000f3fe608060405234801561001057600080fd5b50600436106100625760003560e01c80630ebdaaf21461006757806316c0fb19146101d757806319af145114610329578063355a77cb14610347578063947e4b021461038b578063b0bdad1d146103ed575b600080fd5b6101d5600480360360a081101561007d57600080fd5b810190808035906020019064010000000081111561009a57600080fd5b8201836020820111156100ac57600080fd5b803590602001918460018302840111640100000000831117156100ce57600080fd5b91908080601f016020809104026020016040519081016040528093929190818152602001838380828437600081840152601f19601f8201169050808301925050505050505091929192908035906020019064010000000081111561013157600080fd5b82018360208201111561014357600080fd5b8035906020019184600183028401116401000000008311171561016557600080fd5b91908080601f016020809104026020016040519081016040528093929190818152602001838380828437600081840152601f19601f82011690508083019250505050505050919291929080359060200190929190803590602001909291908035906020019092919050505061044c565b005b610203600480360360208110156101ed57600080fd5b8101908080359060200190929190505050610687565b604051808c815260200180602001806020018b81526020018a815260200189815260200188815260200187815260200186815260200185815260200184815260200183810383528d818151815260200191508051906020019080838360005b8381101561027d578082015181840152602081019050610262565b50505050905090810190601f1680156102aa5780820380516001836020036101000a031916815260200191505b5083810382528c818151815260200191508051906020019080838360005b838110156102e35780820151818401526020810190506102c8565b50505050905090810190601f1680156103105780820380516001836020036101000a031916815260200191505b509d505050505050505050505050505060405180910390f35b610331610a36565b6040518082815260200191505060405180910390f35b6103896004803603602081101561035d57600080fd5b81019080803573ffffffffffffffffffffffffffffffffffffffff169060200190929190505050610a40565b005b6103d7600480360360408110156103a157600080fd5b81019080803573ffffffffffffffffffffffffffffffffffffffff16906020019092919080359060200190929190505050610b2a565b6040518082815260200191505060405180910390f35b6103f5610b58565b6040518080602001828103825283818151815260200191508051906020019060200280838360005b8381101561043857808201518184015260208101905061041d565b505050509050019250505060405180910390f35b60006004549050600460008154809291906001019190505550600160003373ffffffffffffffffffffffffffffffffffffffff1673ffffffffffffffffffffffffffffffffffffffff16815260200190815260200160002081908060018154018082558091505090600182039060005260206000200160009091929091909150555080600080838152602001908152602001600020600001819055503360008083815260200190815260200160002060010160006101000a81548173ffffffffffffffffffffffffffffffffffffffff021916908373ffffffffffffffffffffffffffffffffffffffff160217905550856000808381526020019081526020016000206002019080519060200190610565929190610bed565b5084600080838152602001908152602001600020600301908051906020019061058f929190610bed565b5082600080838152602001908152602001600020600401819055508160008083815260200190815260200160002060050181905550836000808381526020019081526020016000206006018190555060008060008381526020019081526020016000206007018190555060008060008381526020019081526020016000206008018190555042600080838152602001908152602001600020600901819055506000806000838152602001908152602001600020600a01819055506000806000838152602001908152602001600020600b01819055506000806000838152602001908152602001600020600c0181905550505050505050565b60006060806000806000806000806000803373ffffffffffffffffffffffffffffffffffffffff166000808e815260200190815260200160002060010160009054906101000a900473ffffffffffffffffffffffffffffffffffffffff1673ffffffffffffffffffffffffffffffffffffffff1614806107545750600360009054906101000a900473ffffffffffffffffffffffffffffffffffffffff1673ffffffffffffffffffffffffffffffffffffffff163373ffffffffffffffffffffffffffffffffffffffff16145b6107a9576040517f08c379a000000000000000000000000000000000000000000000000000000000815260040180806020018281038252603f815260200180610d11603f913960400191505060405180910390fd5b6107b1610c6d565b6000808e8152602001908152602001600020604051806101a0016040529081600082015481526020016001820160009054906101000a900473ffffffffffffffffffffffffffffffffffffffff1673ffffffffffffffffffffffffffffffffffffffff1673ffffffffffffffffffffffffffffffffffffffff168152602001600282018054600181600116156101000203166002900480601f0160208091040260200160405190810160405280929190818152602001828054600181600116156101000203166002900480156108c85780601f1061089d576101008083540402835291602001916108c8565b820191906000526020600020905b8154815290600101906020018083116108ab57829003601f168201915b50505050508152602001600382018054600181600116156101000203166002900480601f01602080910402602001604051908101604052809291908181526020018280546001816001161561010002031660029004801561096a5780601f1061093f5761010080835404028352916020019161096a565b820191906000526020600020905b81548152906001019060200180831161094d57829003601f168201915b50505050508152602001600482015481526020016005820154815260200160068201548152602001600782015481526020016008820154815260200160098201548152602001600a8201548152602001600b8201548152602001600c82015481525050905080600001518160400151826060015183608001518460a001518560c001518660e001518761010001518861012001518961016001518a61018001518999508898509b509b509b509b509b509b509b509b509b509b509b505091939597999b90929496989a50565b6000600454905090565b600260009054906101000a900473ffffffffffffffffffffffffffffffffffffffff1673ffffffffffffffffffffffffffffffffffffffff163373ffffffffffffffffffffffffffffffffffffffff1614610ae6576040517f08c379a000000000000000000000000000000000000000000000000000000000815260040180806020018281038252602b815260200180610d50602b913960400191505060405180910390fd5b80600360006101000a81548173ffffffffffffffffffffffffffffffffffffffff021916908373ffffffffffffffffffffffffffffffffffffffff16021790555050565b60016020528160005260406000208181548110610b4357fe5b90600052602060002001600091509150505481565b6060600160003373ffffffffffffffffffffffffffffffffffffffff1673ffffffffffffffffffffffffffffffffffffffff168152602001908152602001600020805480602002602001604051908101604052809291908181526020018280548015610be357602002820191906000526020600020905b815481526020019060010190808311610bcf575b5050505050905090565b828054600181600116156101000203166002900490600052602060002090601f016020900481019282601f10610c2e57805160ff1916838001178555610c5c565b82800160010185558215610c5c579182015b82811115610c5b578251825591602001919060010190610c40565b5b509050610c699190610ceb565b5090565b604051806101a0016040528060008152602001600073ffffffffffffffffffffffffffffffffffffffff16815260200160608152602001606081526020016000815260200160008152602001600081526020016000815260200160008152602001600081526020016000815260200160008152602001600081525090565b610d0d91905b80821115610d09576000816000905550600101610cf1565b5090565b9056fe45737365206461646f20736f20706f64652073657220616365737361646f2070656c6f20636c69656e74652061207175656d20656c652070657274656e636545737365206d65746f646f20736f20706f64652073657220616365737361646f2070656c6f206f776e6572a165627a7a72305820eb31c8217c387abc0c91eca4920159992e36795380140b2b5736b7f84b677afe0029",
  "source": "pragma solidity >=0.4.21 <0.6.0;\n\ncontract Monitor{\n\n    struct Flow{\n        uint id;\n        address client;\n        string host;\n        string destiny;\n        uint host_port;\n        uint destiny_port;\n        uint protocol;\n        uint256 pktcount;\n        uint256 total_bytes;\n        uint256 start_tstamp;\n        uint256 end_tstamp;\n        uint256 last_packet_tstamp;\n        uint256 duration;\n    }\n\n    mapping(uint => Flow) private Flows;\n    mapping(address => uint[]) public Flows_id;\n    address private owner;\n    address private monitor;\n\n    uint private flows_qnt;\n\n    constructor() public{\n        owner = msg.sender;\n        flows_qnt = 0;\n    }\n\n    function Set_Monitor(address _monitor) public{\n        require(msg.sender == owner, \"Esse metodo so pode ser acessado pelo owner\");\n        monitor = _monitor;\n\n    }\n\n    function New_Flow(string memory _host, string memory _destiny, uint _protocol, uint _hport, uint _dport) public{\n        uint actual = flows_qnt;\n        flows_qnt++;\n        Flows_id[msg.sender].push(actual);\n        Flows[actual].id = actual;\n        Flows[actual].client = msg.sender;\n\n        //Set by client\n        Flows[actual].host = _host;\n        Flows[actual].destiny = _destiny;\n        Flows[actual].host_port = _hport;\n        Flows[actual].destiny_port = _dport;\n        Flows[actual].protocol = _protocol;\n\n        //Set to default\n        Flows[actual].pktcount = 0;\n        Flows[actual].total_bytes = 0;\n        Flows[actual].start_tstamp = block.timestamp;\n        Flows[actual].end_tstamp = 0;\n        Flows[actual].last_packet_tstamp = 0;\n        Flows[actual].duration = 0;\n\n    }\n\n    function Get_Flow_Id() public view returns(uint[] memory){\n        return Flows_id[msg.sender];\n    }\n\n    function Get_Flow(uint _id) public view returns(uint, string memory, string memory, uint, uint, uint, uint256, uint256, uint256, uint256, uint256){\n        require(Flows[_id].client == msg.sender || msg.sender == monitor, \"Esse dado so pode ser acessado pelo cliente a quem ele pertence\");\n        Flow memory f = Flows[_id];\n        return(f.id, f.host, f.destiny, f.host_port, f.destiny_port, f.protocol, f.pktcount, f.total_bytes, f.start_tstamp, f.last_packet_tstamp, f.duration);\n    }\n\n    function Get_Flow_Qnt() public view returns(uint){\n        return flows_qnt;\n    }\n\n\n}\n",
  "sourcePath": "/home/matheus/github/TCC/Truffle-Projects/Monitor/contracts/Monitor.sol",
  "compiler": {
    "name": "solc",
    "version": "0.5.8+commit.23d335f2.Emscripten.clang"
  },
  "schemaVersion": "3.0.15",
  "updatedAt": "2020-03-31T00:05:26.896Z",
  "devdoc": {
    "methods": {}
  },
  "userdoc": {
    "methods": {}
  }
}