{
  "contractName": "Monitor",
  "abi": [
    {
      "constant": true,
      "inputs": [
        {
          "name": "",
          "type": "address"
        },
        {
          "name": "",
          "type": "uint256"
        }
      ],
      "name": "Flows_id",
      "outputs": [
        {
          "name": "",
          "type": "uint256"
        }
      ],
      "payable": false,
      "stateMutability": "view",
      "type": "function"
    },
    {
      "inputs": [],
      "payable": false,
      "stateMutability": "nonpayable",
      "type": "constructor"
    },
    {
      "constant": false,
      "inputs": [
        {
          "name": "_monitor",
          "type": "address"
        }
      ],
      "name": "Set_Monitor",
      "outputs": [],
      "payable": false,
      "stateMutability": "nonpayable",
      "type": "function"
    },
    {
      "constant": false,
      "inputs": [
        {
          "name": "_host",
          "type": "string"
        },
        {
          "name": "_destiny",
          "type": "string"
        },
        {
          "name": "_protocol",
          "type": "uint256"
        }
      ],
      "name": "New_Flow",
      "outputs": [],
      "payable": false,
      "stateMutability": "nonpayable",
      "type": "function"
    },
    {
      "constant": true,
      "inputs": [],
      "name": "Get_Flow_Id",
      "outputs": [
        {
          "name": "",
          "type": "uint256[]"
        }
      ],
      "payable": false,
      "stateMutability": "view",
      "type": "function"
    },
    {
      "constant": true,
      "inputs": [
        {
          "name": "_id",
          "type": "uint256"
        }
      ],
      "name": "Get_Flow",
      "outputs": [
        {
          "name": "",
          "type": "uint256"
        },
        {
          "name": "",
          "type": "string"
        },
        {
          "name": "",
          "type": "string"
        },
        {
          "name": "",
          "type": "uint256"
        },
        {
          "name": "",
          "type": "uint256"
        },
        {
          "name": "",
          "type": "uint256"
        },
        {
          "name": "",
          "type": "uint256"
        },
        {
          "name": "",
          "type": "uint256"
        },
        {
          "name": "",
          "type": "uint256"
        }
      ],
      "payable": false,
      "stateMutability": "view",
      "type": "function"
    },
    {
      "constant": true,
      "inputs": [],
      "name": "Get_Flow_Qnt",
      "outputs": [
        {
          "name": "",
          "type": "uint256"
        }
      ],
      "payable": false,
      "stateMutability": "view",
      "type": "function"
    }
  ],
  "bytecode": "0x608060405234801561001057600080fd5b5033600260006101000a81548173ffffffffffffffffffffffffffffffffffffffff021916908373ffffffffffffffffffffffffffffffffffffffff1602179055506000600481905550610d17806100696000396000f3fe608060405234801561001057600080fd5b50600436106100625760003560e01c806316c0fb191461006757806319af1451146101ab5780632d414f84146101c9578063355a77cb14610325578063947e4b0214610369578063b0bdad1d146103cb575b600080fd5b6100936004803603602081101561007d57600080fd5b810190808035906020019092919050505061042a565b604051808a8152602001806020018060200189815260200188815260200187815260200186815260200185815260200184815260200183810383528b818151815260200191508051906020019080838360005b838110156101015780820151818401526020810190506100e6565b50505050905090810190601f16801561012e5780820380516001836020036101000a031916815260200191505b5083810382528a818151815260200191508051906020019080838360005b8381101561016757808201518184015260208101905061014c565b50505050905090810190601f1680156101945780820380516001836020036101000a031916815260200191505b509b50505050505050505050505060405180910390f35b6101b36107b0565b6040518082815260200191505060405180910390f35b610323600480360360608110156101df57600080fd5b81019080803590602001906401000000008111156101fc57600080fd5b82018360208201111561020e57600080fd5b8035906020019184600183028401116401000000008311171561023057600080fd5b91908080601f016020809104026020016040519081016040528093929190818152602001838380828437600081840152601f19601f8201169050808301925050505050505091929192908035906020019064010000000081111561029357600080fd5b8201836020820111156102a557600080fd5b803590602001918460018302840111640100000000831117156102c757600080fd5b91908080601f016020809104026020016040519081016040528093929190818152602001838380828437600081840152601f19601f820116905080830192505050505050509192919290803590602001909291905050506107ba565b005b6103676004803603602081101561033b57600080fd5b81019080803573ffffffffffffffffffffffffffffffffffffffff1690602001909291905050506109bf565b005b6103b56004803603604081101561037f57600080fd5b81019080803573ffffffffffffffffffffffffffffffffffffffff16906020019092919080359060200190929190505050610aa9565b6040518082815260200191505060405180910390f35b6103d3610ad7565b6040518080602001828103825283818151815260200191508051906020019060200280838360005b838110156104165780820151818401526020810190506103fb565b505050509050019250505060405180910390f35b60006060806000806000806000803373ffffffffffffffffffffffffffffffffffffffff166000808c815260200190815260200160002060010160009054906101000a900473ffffffffffffffffffffffffffffffffffffffff1673ffffffffffffffffffffffffffffffffffffffff1614806104f45750600360009054906101000a900473ffffffffffffffffffffffffffffffffffffffff1673ffffffffffffffffffffffffffffffffffffffff163373ffffffffffffffffffffffffffffffffffffffff16145b610549576040517f08c379a000000000000000000000000000000000000000000000000000000000815260040180806020018281038252603f815260200180610c82603f913960400191505060405180910390fd5b610551610b6c565b6000808c815260200190815260200160002060405180610160016040529081600082015481526020016001820160009054906101000a900473ffffffffffffffffffffffffffffffffffffffff1673ffffffffffffffffffffffffffffffffffffffff1673ffffffffffffffffffffffffffffffffffffffff168152602001600282018054600181600116156101000203166002900480601f0160208091040260200160405190810160405280929190818152602001828054600181600116156101000203166002900480156106685780601f1061063d57610100808354040283529160200191610668565b820191906000526020600020905b81548152906001019060200180831161064b57829003601f168201915b50505050508152602001600382018054600181600116156101000203166002900480601f01602080910402602001604051908101604052809291908181526020018280546001816001161561010002031660029004801561070a5780601f106106df5761010080835404028352916020019161070a565b820191906000526020600020905b8154815290600101906020018083116106ed57829003601f168201915b50505050508152602001600482015481526020016005820154815260200160068201548152602001600782015481526020016008820154815260200160098201548152602001600a82015481525050905080600001518160400151826060015183608001518460a001518560c001518660e00151876101200151886101400151879750869650995099509950995099509950995099509950509193959799909294969850565b6000600454905090565b60006004549050600460008154809291906001019190505550600160003373ffffffffffffffffffffffffffffffffffffffff1673ffffffffffffffffffffffffffffffffffffffff16815260200190815260200160002081908060018154018082558091505090600182039060005260206000200160009091929091909150555080600080838152602001908152602001600020600001819055503360008083815260200190815260200160002060010160006101000a81548173ffffffffffffffffffffffffffffffffffffffff021916908373ffffffffffffffffffffffffffffffffffffffff1602179055508360008083815260200190815260200160002060020190805190602001906108d3929190610bdc565b508260008083815260200190815260200160002060030190805190602001906108fd929190610bdc565b50816000808381526020019081526020016000206004018190555060008060008381526020019081526020016000206005018190555060008060008381526020019081526020016000206006018190555042600080838152602001908152602001600020600701819055506000806000838152602001908152602001600020600801819055506000806000838152602001908152602001600020600901819055506000806000838152602001908152602001600020600a018190555050505050565b600260009054906101000a900473ffffffffffffffffffffffffffffffffffffffff1673ffffffffffffffffffffffffffffffffffffffff163373ffffffffffffffffffffffffffffffffffffffff1614610a65576040517f08c379a000000000000000000000000000000000000000000000000000000000815260040180806020018281038252602b815260200180610cc1602b913960400191505060405180910390fd5b80600360006101000a81548173ffffffffffffffffffffffffffffffffffffffff021916908373ffffffffffffffffffffffffffffffffffffffff16021790555050565b60016020528160005260406000208181548110610ac257fe5b90600052602060002001600091509150505481565b6060600160003373ffffffffffffffffffffffffffffffffffffffff1673ffffffffffffffffffffffffffffffffffffffff168152602001908152602001600020805480602002602001604051908101604052809291908181526020018280548015610b6257602002820191906000526020600020905b815481526020019060010190808311610b4e575b5050505050905090565b60405180610160016040528060008152602001600073ffffffffffffffffffffffffffffffffffffffff1681526020016060815260200160608152602001600081526020016000815260200160008152602001600081526020016000815260200160008152602001600081525090565b828054600181600116156101000203166002900490600052602060002090601f016020900481019282601f10610c1d57805160ff1916838001178555610c4b565b82800160010185558215610c4b579182015b82811115610c4a578251825591602001919060010190610c2f565b5b509050610c589190610c5c565b5090565b610c7e91905b80821115610c7a576000816000905550600101610c62565b5090565b9056fe45737365206461646f20736f20706f64652073657220616365737361646f2070656c6f20636c69656e74652061207175656d20656c652070657274656e636545737365206d65746f646f20736f20706f64652073657220616365737361646f2070656c6f206f776e6572a165627a7a72305820c046051370020a299f5882c3d3de59663695471b3c2c7cb3aaaeef70aa85688c0029",
  "source": "pragma solidity >=0.4.21 <0.6.0;\n\ncontract Monitor{\n\n    struct Flow{\n        uint id;\n        address client;\n        string host;\n        string destiny;\n        uint protocol;\n        uint256 pktcount;\n        uint256 total_bytes;\n        uint256 start_tstamp;\n        uint256 end_tstamp;\n        uint256 last_packet_tstamp;\n        uint256 duration;\n    }\n\n    mapping(uint => Flow) private Flows;\n    mapping(address => uint[]) public Flows_id;\n    address private owner;\n    address private monitor;\n\n    uint private flows_qnt;\n\n    constructor() public{\n        owner = msg.sender;\n        flows_qnt = 0;\n    }\n\n    function Set_Monitor(address _monitor) public{\n        require(msg.sender == owner, \"Esse metodo so pode ser acessado pelo owner\");\n        monitor = _monitor;\n\n    }\n\n    function New_Flow(string memory _host, string memory _destiny, uint _protocol) public{\n        uint actual = flows_qnt;\n        flows_qnt++;\n        Flows_id[msg.sender].push(actual);\n        Flows[actual].id = actual;\n        Flows[actual].client = msg.sender;\n\n        //Set by client\n        Flows[actual].host = _host;\n        Flows[actual].destiny = _destiny;\n        Flows[actual].protocol = _protocol;\n\n        //Set to default\n        Flows[actual].pktcount = 0;\n        Flows[actual].total_bytes = 0;\n        Flows[actual].start_tstamp = block.timestamp;\n        Flows[actual].end_tstamp = 0;\n        Flows[actual].last_packet_tstamp = 0;\n        Flows[actual].duration = 0;\n\n    }\n\n    function Get_Flow_Id() public view returns(uint[] memory){\n        return Flows_id[msg.sender];\n    }\n\n    function Get_Flow(uint _id) public view returns(uint, string memory, string memory, uint, uint256, uint256, uint256, uint256, uint256){\n        require(Flows[_id].client == msg.sender || msg.sender == monitor, \"Esse dado so pode ser acessado pelo cliente a quem ele pertence\");\n        Flow memory f = Flows[_id];\n        return(f.id, f.host, f.destiny, f.protocol, f.pktcount, f.total_bytes, f.start_tstamp, f.last_packet_tstamp, f.duration);\n    }\n\n    function Get_Flow_Qnt() public view returns(uint){\n        return flows_qnt;\n    }\n\n\n}\n",
  "sourcePath": "/home/matheus/github/TCC/Truffle-Projects/Monitor/contracts/Monitor.sol",
  "compiler": {
    "name": "solc",
    "version": "0.5.8+commit.23d335f2.Emscripten.clang"
  },
  "schemaVersion": "3.0.15",
  "updatedAt": "2020-03-30T22:24:08.465Z",
  "devdoc": {
    "methods": {}
  },
  "userdoc": {
    "methods": {}
  }
}