{
  "contractName": "Monitor",
  "abi": [
    {
      "constant": true,
      "inputs": [
        {
          "name": "",
          "type": "address"
        },
        {
          "name": "",
          "type": "uint256"
        }
      ],
      "name": "Flows_id",
      "outputs": [
        {
          "name": "",
          "type": "uint256"
        }
      ],
      "payable": false,
      "stateMutability": "view",
      "type": "function"
    },
    {
      "inputs": [],
      "payable": false,
      "stateMutability": "nonpayable",
      "type": "constructor"
    },
    {
      "anonymous": false,
      "inputs": [
        {
          "indexed": false,
          "name": "id",
          "type": "uint256"
        }
      ],
      "name": "new_entry",
      "type": "event"
    },
    {
      "constant": false,
      "inputs": [
        {
          "name": "_monitor",
          "type": "address"
        }
      ],
      "name": "Set_Monitor",
      "outputs": [],
      "payable": false,
      "stateMutability": "nonpayable",
      "type": "function"
    },
    {
      "constant": false,
      "inputs": [
        {
          "name": "_host",
          "type": "string"
        },
        {
          "name": "_destiny",
          "type": "string"
        },
        {
          "name": "_protocol",
          "type": "uint256"
        },
        {
          "name": "_hport",
          "type": "uint256"
        },
        {
          "name": "_dport",
          "type": "uint256"
        }
      ],
      "name": "New_Flow",
      "outputs": [],
      "payable": false,
      "stateMutability": "nonpayable",
      "type": "function"
    },
    {
      "constant": false,
      "inputs": [
        {
          "name": "_id",
          "type": "uint256"
        },
        {
          "name": "_pktcnt",
          "type": "uint64"
        },
        {
          "name": "_t_bytes",
          "type": "uint64"
        },
        {
          "name": "_last_pkt_tstamp",
          "type": "uint64"
        },
        {
          "name": "_end_tstamp",
          "type": "uint64"
        }
      ],
      "name": "Update_Flow",
      "outputs": [],
      "payable": false,
      "stateMutability": "nonpayable",
      "type": "function"
    },
    {
      "constant": true,
      "inputs": [],
      "name": "Get_Flow_Id",
      "outputs": [
        {
          "name": "",
          "type": "uint256[]"
        }
      ],
      "payable": false,
      "stateMutability": "view",
      "type": "function"
    },
    {
      "constant": true,
      "inputs": [
        {
          "name": "_id",
          "type": "uint256"
        }
      ],
      "name": "Get_Flow",
      "outputs": [
        {
          "name": "",
          "type": "uint256"
        },
        {
          "name": "",
          "type": "string"
        },
        {
          "name": "",
          "type": "string"
        },
        {
          "name": "",
          "type": "uint256"
        },
        {
          "name": "",
          "type": "uint256"
        },
        {
          "name": "",
          "type": "uint256"
        },
        {
          "name": "",
          "type": "uint256"
        },
        {
          "name": "",
          "type": "uint256"
        },
        {
          "name": "",
          "type": "uint256"
        },
        {
          "name": "",
          "type": "uint256"
        },
        {
          "name": "",
          "type": "uint256"
        }
      ],
      "payable": false,
      "stateMutability": "view",
      "type": "function"
    },
    {
      "constant": true,
      "inputs": [],
      "name": "Get_Flow_Qnt",
      "outputs": [
        {
          "name": "",
          "type": "uint256"
        }
      ],
      "payable": false,
      "stateMutability": "view",
      "type": "function"
    }
  ],
  "bytecode": "0x608060405234801561001057600080fd5b5033600260006101000a81548173ffffffffffffffffffffffffffffffffffffffff021916908373ffffffffffffffffffffffffffffffffffffffff1602179055506000600481905550610f9c806100696000396000f3fe608060405234801561001057600080fd5b506004361061007d5760003560e01c8063355a77cb1161005b578063355a77cb146103625780638932fdc7146103a6578063947e4b0214610424578063b0bdad1d146104865761007d565b80630ebdaaf21461008257806316c0fb19146101f257806319af145114610344575b600080fd5b6101f0600480360360a081101561009857600080fd5b81019080803590602001906401000000008111156100b557600080fd5b8201836020820111156100c757600080fd5b803590602001918460018302840111640100000000831117156100e957600080fd5b91908080601f016020809104026020016040519081016040528093929190818152602001838380828437600081840152601f19601f8201169050808301925050505050505091929192908035906020019064010000000081111561014c57600080fd5b82018360208201111561015e57600080fd5b8035906020019184600183028401116401000000008311171561018057600080fd5b91908080601f016020809104026020016040519081016040528093929190818152602001838380828437600081840152601f19601f8201169050808301925050505050505091929192908035906020019092919080359060200190929190803590602001909291905050506104e5565b005b61021e6004803603602081101561020857600080fd5b8101908080359060200190929190505050610757565b604051808c815260200180602001806020018b81526020018a815260200189815260200188815260200187815260200186815260200185815260200184815260200183810383528d818151815260200191508051906020019080838360005b8381101561029857808201518184015260208101905061027d565b50505050905090810190601f1680156102c55780820380516001836020036101000a031916815260200191505b5083810382528c818151815260200191508051906020019080838360005b838110156102fe5780820151818401526020810190506102e3565b50505050905090810190601f16801561032b5780820380516001836020036101000a031916815260200191505b509d505050505050505050505050505060405180910390f35b61034c610b06565b6040518082815260200191505060405180910390f35b6103a46004803603602081101561037857600080fd5b81019080803573ffffffffffffffffffffffffffffffffffffffff169060200190929190505050610b10565b005b610422600480360360a08110156103bc57600080fd5b8101908080359060200190929190803567ffffffffffffffff169060200190929190803567ffffffffffffffff169060200190929190803567ffffffffffffffff169060200190929190803567ffffffffffffffff169060200190929190505050610bfa565b005b6104706004803603604081101561043a57600080fd5b81019080803573ffffffffffffffffffffffffffffffffffffffff16906020019092919080359060200190929190505050610d20565b6040518082815260200191505060405180910390f35b61048e610d4e565b6040518080602001828103825283818151815260200191508051906020019060200280838360005b838110156104d15780820151818401526020810190506104b6565b505050509050019250505060405180910390f35b60006004549050600460008154809291906001019190505550600160003373ffffffffffffffffffffffffffffffffffffffff1673ffffffffffffffffffffffffffffffffffffffff16815260200190815260200160002081908060018154018082558091505090600182039060005260206000200160009091929091909150555080600080838152602001908152602001600020600001819055503360008083815260200190815260200160002060010160006101000a81548173ffffffffffffffffffffffffffffffffffffffff021916908373ffffffffffffffffffffffffffffffffffffffff1602179055508560008083815260200190815260200160002060020190805190602001906105fe929190610de3565b50846000808381526020019081526020016000206003019080519060200190610628929190610de3565b5082600080838152602001908152602001600020600401819055508160008083815260200190815260200160002060050181905550836000808381526020019081526020016000206006018190555060008060008381526020019081526020016000206007018190555060008060008381526020019081526020016000206008018190555042600080838152602001908152602001600020600901819055506000806000838152602001908152602001600020600a01819055506000806000838152602001908152602001600020600b01819055506000806000838152602001908152602001600020600c01819055507f68a14fe81728c15eb057d0911789f50298bc49c575afe9fa4d50c9ffe7be9586816040518082815260200191505060405180910390a1505050505050565b60006060806000806000806000806000803373ffffffffffffffffffffffffffffffffffffffff166000808e815260200190815260200160002060010160009054906101000a900473ffffffffffffffffffffffffffffffffffffffff1673ffffffffffffffffffffffffffffffffffffffff1614806108245750600360009054906101000a900473ffffffffffffffffffffffffffffffffffffffff1673ffffffffffffffffffffffffffffffffffffffff163373ffffffffffffffffffffffffffffffffffffffff16145b610879576040517f08c379a000000000000000000000000000000000000000000000000000000000815260040180806020018281038252603f815260200180610f07603f913960400191505060405180910390fd5b610881610e63565b6000808e8152602001908152602001600020604051806101a0016040529081600082015481526020016001820160009054906101000a900473ffffffffffffffffffffffffffffffffffffffff1673ffffffffffffffffffffffffffffffffffffffff1673ffffffffffffffffffffffffffffffffffffffff168152602001600282018054600181600116156101000203166002900480601f0160208091040260200160405190810160405280929190818152602001828054600181600116156101000203166002900480156109985780601f1061096d57610100808354040283529160200191610998565b820191906000526020600020905b81548152906001019060200180831161097b57829003601f168201915b50505050508152602001600382018054600181600116156101000203166002900480601f016020809104026020016040519081016040528092919081815260200182805460018160011615610100020316600290048015610a3a5780601f10610a0f57610100808354040283529160200191610a3a565b820191906000526020600020905b815481529060010190602001808311610a1d57829003601f168201915b50505050508152602001600482015481526020016005820154815260200160068201548152602001600782015481526020016008820154815260200160098201548152602001600a8201548152602001600b8201548152602001600c82015481525050905080600001518160400151826060015183608001518460a001518560c001518660e001518761010001518861012001518961016001518a61018001518999508898509b509b509b509b509b509b509b509b509b509b509b505091939597999b90929496989a50565b6000600454905090565b600260009054906101000a900473ffffffffffffffffffffffffffffffffffffffff1673ffffffffffffffffffffffffffffffffffffffff163373ffffffffffffffffffffffffffffffffffffffff1614610bb6576040517f08c379a000000000000000000000000000000000000000000000000000000000815260040180806020018281038252602b815260200180610f46602b913960400191505060405180910390fd5b80600360006101000a81548173ffffffffffffffffffffffffffffffffffffffff021916908373ffffffffffffffffffffffffffffffffffffffff16021790555050565b60008060008781526020019081526020016000206000015410610d1957600080868152602001908152602001600020600701548467ffffffffffffffff160360008087815260200190815260200160002060070160008282540192505081905550600080868152602001908152602001600020600801548367ffffffffffffffff1603600080878152602001908152602001600020600801600082825401925050819055508067ffffffffffffffff16600080878152602001908152602001600020600a01819055508167ffffffffffffffff16600080878152602001908152602001600020600b0181905550600080868152602001908152602001600020600901544203600080878152602001908152602001600020600c01819055505b5050505050565b60016020528160005260406000208181548110610d3957fe5b90600052602060002001600091509150505481565b6060600160003373ffffffffffffffffffffffffffffffffffffffff1673ffffffffffffffffffffffffffffffffffffffff168152602001908152602001600020805480602002602001604051908101604052809291908181526020018280548015610dd957602002820191906000526020600020905b815481526020019060010190808311610dc5575b5050505050905090565b828054600181600116156101000203166002900490600052602060002090601f016020900481019282601f10610e2457805160ff1916838001178555610e52565b82800160010185558215610e52579182015b82811115610e51578251825591602001919060010190610e36565b5b509050610e5f9190610ee1565b5090565b604051806101a0016040528060008152602001600073ffffffffffffffffffffffffffffffffffffffff16815260200160608152602001606081526020016000815260200160008152602001600081526020016000815260200160008152602001600081526020016000815260200160008152602001600081525090565b610f0391905b80821115610eff576000816000905550600101610ee7565b5090565b9056fe45737365206461646f20736f20706f64652073657220616365737361646f2070656c6f20636c69656e74652061207175656d20656c652070657274656e636545737365206d65746f646f20736f20706f64652073657220616365737361646f2070656c6f206f776e6572a165627a7a723058204ea44970e9e6a15daeb96dc53fd047dd94d6d0fe1159e564998bc7607d3068850029",
  "source": "pragma solidity >=0.4.21 <0.6.0;\n\ncontract Monitor{\n\n    struct Flow{\n        uint id;\n        address client;\n        string host;\n        string destiny;\n        uint host_port;\n        uint destiny_port;\n        uint protocol;\n        uint256 pktcount;\n        uint256 total_bytes;\n        uint256 start_tstamp;\n        uint256 end_tstamp;\n        uint256 last_packet_tstamp;\n        uint256 duration;\n    }\n\n    mapping(uint => Flow) private Flows;\n    mapping(address => uint[]) public Flows_id;\n    address private owner;\n    address private monitor;\n\n    uint private next_flow_id;\n\n    event new_entry(uint id);\n\n    constructor() public{\n        owner = msg.sender;\n        next_flow_id = 0;\n    }\n\n    function Set_Monitor(address _monitor) public{\n        require(msg.sender == owner, \"Esse metodo so pode ser acessado pelo owner\");\n        monitor = _monitor;\n\n    }\n\n    function New_Flow(string memory _host, string memory _destiny, uint _protocol, uint _hport, uint _dport) public{\n        uint actual = next_flow_id;\n        next_flow_id++;\n        Flows_id[msg.sender].push(actual);\n        Flows[actual].id = actual;\n        Flows[actual].client = msg.sender;\n\n        //Set by client\n        Flows[actual].host = _host;\n        Flows[actual].destiny = _destiny;\n        Flows[actual].host_port = _hport;\n        Flows[actual].destiny_port = _dport;\n        Flows[actual].protocol = _protocol;\n\n        //Set to default\n        Flows[actual].pktcount = 0;\n        Flows[actual].total_bytes = 0;\n        Flows[actual].start_tstamp = block.timestamp;\n        Flows[actual].end_tstamp = 0;\n        Flows[actual].last_packet_tstamp = 0;\n        Flows[actual].duration = 0;\n\n        emit new_entry(actual);\n\n    }\n\n    function Update_Flow(uint _id, uint64 _pktcnt, uint64 _t_bytes, uint64 _last_pkt_tstamp, uint64 _end_tstamp) public{\n        /* require(msg.sender == monitor, \"Metodo só pode ser acessado pelo monitor\"); */\n        if(Flows[_id].id >= 0){\n            Flows[_id].pktcount += (uint256(_pktcnt) - Flows[_id].pktcount);\n            Flows[_id].total_bytes += (uint256(_t_bytes) - Flows[_id].total_bytes);\n            Flows[_id].end_tstamp = uint256(_end_tstamp);\n            Flows[_id].last_packet_tstamp = uint256(_last_pkt_tstamp);\n            Flows[_id].duration = block.timestamp - Flows[_id].start_tstamp;\n        }\n\n    }\n\n    function Get_Flow_Id() public view returns(uint[] memory){\n        return Flows_id[msg.sender];\n    }\n\n    function Get_Flow(uint _id) public view returns(uint, string memory, string memory, uint, uint, uint, uint256, uint256, uint256, uint256, uint256){\n        require(Flows[_id].client == msg.sender || msg.sender == monitor, \"Esse dado so pode ser acessado pelo cliente a quem ele pertence\");\n        Flow memory f = Flows[_id];\n        return(f.id, f.host, f.destiny, f.host_port, f.destiny_port, f.protocol, f.pktcount, f.total_bytes, f.start_tstamp, f.last_packet_tstamp, f.duration);\n    }\n\n    function Get_Flow_Qnt() public view returns(uint){\n        return next_flow_id;\n    }\n\n\n}\n",
  "sourcePath": "/home/matheus/github/TCC/Truffle-Projects/Monitor/contracts/Monitor.sol",
  "compiler": {
    "name": "solc",
    "version": "0.5.8+commit.23d335f2.Emscripten.clang"
  },
  "schemaVersion": "3.0.15",
  "updatedAt": "2020-04-12T22:48:34.722Z",
  "devdoc": {
    "methods": {}
  },
  "userdoc": {
    "methods": {}
  }
}