{
  "contractName": "Monitor",
  "abi": [
    {
      "constant": true,
      "inputs": [
        {
          "name": "",
          "type": "address"
        },
        {
          "name": "",
          "type": "uint256"
        }
      ],
      "name": "Flows_id",
      "outputs": [
        {
          "name": "",
          "type": "uint256"
        }
      ],
      "payable": false,
      "stateMutability": "view",
      "type": "function"
    },
    {
      "inputs": [],
      "payable": false,
      "stateMutability": "nonpayable",
      "type": "constructor"
    },
    {
      "constant": false,
      "inputs": [
        {
          "name": "_monitor",
          "type": "address"
        }
      ],
      "name": "Set_Monitor",
      "outputs": [],
      "payable": false,
      "stateMutability": "nonpayable",
      "type": "function"
    },
    {
      "constant": false,
      "inputs": [
        {
          "name": "_host",
          "type": "string"
        },
        {
          "name": "_destiny",
          "type": "string"
        },
        {
          "name": "_protocol",
          "type": "string"
        }
      ],
      "name": "New_Flow",
      "outputs": [],
      "payable": false,
      "stateMutability": "nonpayable",
      "type": "function"
    },
    {
      "constant": false,
      "inputs": [
        {
          "name": "_id",
          "type": "uint256"
        }
      ],
      "name": "Increase_Count",
      "outputs": [],
      "payable": false,
      "stateMutability": "nonpayable",
      "type": "function"
    },
    {
      "constant": true,
      "inputs": [],
      "name": "Get_Flow_Id",
      "outputs": [
        {
          "name": "",
          "type": "uint256[]"
        }
      ],
      "payable": false,
      "stateMutability": "view",
      "type": "function"
    },
    {
      "constant": true,
      "inputs": [
        {
          "name": "_id",
          "type": "uint256"
        }
      ],
      "name": "Get_Flow",
      "outputs": [
        {
          "name": "",
          "type": "uint256"
        },
        {
          "name": "",
          "type": "string"
        },
        {
          "name": "",
          "type": "string"
        },
        {
          "name": "",
          "type": "string"
        },
        {
          "name": "",
          "type": "uint256"
        }
      ],
      "payable": false,
      "stateMutability": "view",
      "type": "function"
    },
    {
      "constant": true,
      "inputs": [],
      "name": "Get_Flow_Qnt",
      "outputs": [
        {
          "name": "",
          "type": "uint256"
        }
      ],
      "payable": false,
      "stateMutability": "view",
      "type": "function"
    }
  ],
  "bytecode": "0x608060405234801561001057600080fd5b5033600260006101000a81548173ffffffffffffffffffffffffffffffffffffffff021916908373ffffffffffffffffffffffffffffffffffffffff1602179055506000600481905550610ed8806100696000396000f3fe608060405234801561001057600080fd5b506004361061007d5760003560e01c80635a81a20c1161005b5780635a81a20c14610271578063947e4b021461029f578063b0bdad1d14610301578063d88790f1146103605761007d565b806316c0fb191461008257806319af14511461020f578063355a77cb1461022d575b600080fd5b6100ae6004803603602081101561009857600080fd5b8101908080359060200190929190505050610549565b60405180868152602001806020018060200180602001858152602001848103845288818151815260200191508051906020019080838360005b838110156101025780820151818401526020810190506100e7565b50505050905090810190601f16801561012f5780820380516001836020036101000a031916815260200191505b50848103835287818151815260200191508051906020019080838360005b8381101561016857808201518184015260208101905061014d565b50505050905090810190601f1680156101955780820380516001836020036101000a031916815260200191505b50848103825286818151815260200191508051906020019080838360005b838110156101ce5780820151818401526020810190506101b3565b50505050905090810190601f1680156101fb5780820380516001836020036101000a031916815260200191505b509850505050505050505060405180910390f35b610217610910565b6040518082815260200191505060405180910390f35b61026f6004803603602081101561024357600080fd5b81019080803573ffffffffffffffffffffffffffffffffffffffff16906020019092919050505061091a565b005b61029d6004803603602081101561028757600080fd5b8101908080359060200190929190505050610a04565b005b6102eb600480360360408110156102b557600080fd5b81019080803573ffffffffffffffffffffffffffffffffffffffff16906020019092919080359060200190929190505050610ad2565b6040518082815260200191505060405180910390f35b610309610b00565b6040518080602001828103825283818151815260200191508051906020019060200280838360005b8381101561034c578082015181840152602081019050610331565b505050509050019250505060405180910390f35b6105476004803603606081101561037657600080fd5b810190808035906020019064010000000081111561039357600080fd5b8201836020820111156103a557600080fd5b803590602001918460018302840111640100000000831117156103c757600080fd5b91908080601f016020809104026020016040519081016040528093929190818152602001838380828437600081840152601f19601f8201169050808301925050505050505091929192908035906020019064010000000081111561042a57600080fd5b82018360208201111561043c57600080fd5b8035906020019184600183028401116401000000008311171561045e57600080fd5b91908080601f016020809104026020016040519081016040528093929190818152602001838380828437600081840152601f19601f820116905080830192505050505050509192919290803590602001906401000000008111156104c157600080fd5b8201836020820111156104d357600080fd5b803590602001918460018302840111640100000000831117156104f557600080fd5b91908080601f016020809104026020016040519081016040528093929190818152602001838380828437600081840152601f19601f820116905080830192505050505050509192919290505050610b95565b005b6000606080606060003373ffffffffffffffffffffffffffffffffffffffff1660008088815260200190815260200160002060040160009054906101000a900473ffffffffffffffffffffffffffffffffffffffff1673ffffffffffffffffffffffffffffffffffffffff16148061060e5750600360009054906101000a900473ffffffffffffffffffffffffffffffffffffffff1673ffffffffffffffffffffffffffffffffffffffff163373ffffffffffffffffffffffffffffffffffffffff16145b610663576040517f08c379a000000000000000000000000000000000000000000000000000000000815260040180806020018281038252603f815260200180610e16603f913960400191505060405180910390fd5b61066b610d24565b6000808881526020019081526020016000206040518060c001604052908160008201548152602001600182018054600181600116156101000203166002900480601f01602080910402602001604051908101604052809291908181526020018280546001816001161561010002031660029004801561072b5780601f106107005761010080835404028352916020019161072b565b820191906000526020600020905b81548152906001019060200180831161070e57829003601f168201915b50505050508152602001600282018054600181600116156101000203166002900480601f0160208091040260200160405190810160405280929190818152602001828054600181600116156101000203166002900480156107cd5780601f106107a2576101008083540402835291602001916107cd565b820191906000526020600020905b8154815290600101906020018083116107b057829003601f168201915b50505050508152602001600382018054600181600116156101000203166002900480601f01602080910402602001604051908101604052809291908181526020018280546001816001161561010002031660029004801561086f5780601f106108445761010080835404028352916020019161086f565b820191906000526020600020905b81548152906001019060200180831161085257829003601f168201915b505050505081526020016004820160009054906101000a900473ffffffffffffffffffffffffffffffffffffffff1673ffffffffffffffffffffffffffffffffffffffff1673ffffffffffffffffffffffffffffffffffffffff168152602001600582015481525050905080600001518160200151826040015183606001518460a00151839350829250819150955095509550955095505091939590929450565b6000600454905090565b600260009054906101000a900473ffffffffffffffffffffffffffffffffffffffff1673ffffffffffffffffffffffffffffffffffffffff163373ffffffffffffffffffffffffffffffffffffffff16146109c0576040517f08c379a000000000000000000000000000000000000000000000000000000000815260040180806020018281038252602b815260200180610e82602b913960400191505060405180910390fd5b80600360006101000a81548173ffffffffffffffffffffffffffffffffffffffff021916908373ffffffffffffffffffffffffffffffffffffffff16021790555050565b600360009054906101000a900473ffffffffffffffffffffffffffffffffffffffff1673ffffffffffffffffffffffffffffffffffffffff163373ffffffffffffffffffffffffffffffffffffffff1614610aaa576040517f08c379a000000000000000000000000000000000000000000000000000000000815260040180806020018281038252602d815260200180610e55602d913960400191505060405180910390fd5b6000808281526020019081526020016000206005016000815480929190600101919050555050565b60016020528160005260406000208181548110610aeb57fe5b90600052602060002001600091509150505481565b6060600160003373ffffffffffffffffffffffffffffffffffffffff1673ffffffffffffffffffffffffffffffffffffffff168152602001908152602001600020805480602002602001604051908101604052809291908181526020018280548015610b8b57602002820191906000526020600020905b815481526020019060010190808311610b77575b5050505050905090565b60006004549050600460008154809291906001019190505550600160003373ffffffffffffffffffffffffffffffffffffffff1673ffffffffffffffffffffffffffffffffffffffff1681526020019081526020016000208190806001815401808255809150509060018203906000526020600020016000909192909190915055508060008083815260200190815260200160002060000181905550836000808381526020019081526020016000206001019080519060200190610c5a929190610d70565b50826000808381526020019081526020016000206002019080519060200190610c84929190610d70565b50600080600083815260200190815260200160002060050181905550816000808381526020019081526020016000206003019080519060200190610cc9929190610d70565b503360008083815260200190815260200160002060040160006101000a81548173ffffffffffffffffffffffffffffffffffffffff021916908373ffffffffffffffffffffffffffffffffffffffff16021790555050505050565b6040518060c0016040528060008152602001606081526020016060815260200160608152602001600073ffffffffffffffffffffffffffffffffffffffff168152602001600081525090565b828054600181600116156101000203166002900490600052602060002090601f016020900481019282601f10610db157805160ff1916838001178555610ddf565b82800160010185558215610ddf579182015b82811115610dde578251825591602001919060010190610dc3565b5b509050610dec9190610df0565b5090565b610e1291905b80821115610e0e576000816000905550600101610df6565b5090565b9056fe45737365206461646f20736f20706f64652073657220616365737361646f2070656c6f20636c69656e74652061207175656d20656c652070657274656e636545737365206d65746f646f20736f20706f64652073657220616365737361646f2070656c6f206d6f6e69746f7245737365206d65746f646f20736f20706f64652073657220616365737361646f2070656c6f206f776e6572a165627a7a72305820b7915782ea35a056744818409de264c7108ab9b8a04b7a7f14903e24f31e9c990029",
  "source": "pragma solidity >=0.4.21 <0.6.0;\n\ncontract Monitor{\n\n    struct Flow{\n        uint id;\n        string host;\n        string destiny;\n        string protocol;\n        address client;\n        uint count;\n    }\n\n    mapping(uint => Flow) private Flows;\n    mapping(address => uint[]) public Flows_id;\n    address private owner;\n    address private monitor;\n\n    uint private flows_qnt;\n\n    constructor() public{\n        owner = msg.sender;\n        flows_qnt = 0;\n    }\n\n    function Set_Monitor(address _monitor) public{\n        require(msg.sender == owner, \"Esse metodo so pode ser acessado pelo owner\");\n        monitor = _monitor;\n\n    }\n\n    function New_Flow(string memory _host, string memory _destiny, string memory _protocol) public{\n        uint actual = flows_qnt;\n        flows_qnt++;\n        Flows_id[msg.sender].push(actual);\n        Flows[actual].id = actual;\n        Flows[actual].host = _host;\n        Flows[actual].destiny = _destiny;\n        Flows[actual].count = 0;\n        Flows[actual].protocol = _protocol;\n        Flows[actual].client = msg.sender;\n    }\n\n    function Increase_Count(uint _id) public{\n        require(msg.sender == monitor, \"Esse metodo so pode ser acessado pelo monitor\");\n        Flows[_id].count++;\n    }\n\n    function Get_Flow_Id() public view returns(uint[] memory){\n        return Flows_id[msg.sender];\n    }\n\n    function Get_Flow(uint _id) public view returns(uint, string memory, string memory, string memory, uint){\n        require(Flows[_id].client == msg.sender || msg.sender == monitor, \"Esse dado so pode ser acessado pelo cliente a quem ele pertence\");\n        Flow memory f = Flows[_id];\n        return(f.id, f.host, f.destiny, f.protocol, f.count);\n    }\n\n    function Get_Flow_Qnt() public view returns(uint){\n        return flows_qnt;\n    }\n\n\n}\n",
  "sourcePath": "/home/matheus/github/TCC/Truffle-Projects/Monitor/contracts/Monitor.sol",
  "compiler": {
    "name": "solc",
    "version": "0.5.8+commit.23d335f2.Emscripten.clang"
  },
  "schemaVersion": "3.0.15",
  "updatedAt": "2020-03-30T04:57:22.516Z",
  "devdoc": {
    "methods": {}
  },
  "userdoc": {
    "methods": {}
  }
}