{
  "contractName": "HelloWorld",
  "abi": [
    {
      "inputs": [],
      "payable": false,
      "stateMutability": "nonpayable",
      "type": "constructor"
    },
    {
      "constant": false,
      "inputs": [],
      "name": "increaseCount",
      "outputs": [],
      "payable": false,
      "stateMutability": "nonpayable",
      "type": "function"
    },
    {
      "constant": false,
      "inputs": [],
      "name": "decreaseCount",
      "outputs": [],
      "payable": false,
      "stateMutability": "nonpayable",
      "type": "function"
    },
    {
      "constant": true,
      "inputs": [],
      "name": "getCount",
      "outputs": [
        {
          "name": "",
          "type": "int256"
        }
      ],
      "payable": false,
      "stateMutability": "view",
      "type": "function"
    }
  ],
  "bytecode": "0x608060405234801561001057600080fd5b506000805560b0806100236000396000f3fe6080604052348015600f57600080fd5b5060043610603c5760003560e01c8063a87d942c146041578063abd1b73d146059578063e834cbb3146061575b600080fd5b60476067565b60408051918252519081900360200190f35b605f606d565b005b605f6078565b60005490565b600080546001019055565b6000805460001901905556fea165627a7a72305820bc9bfa699a916ac60f92ec5de4109d24c4afaf7c760f75c52dbad33d093f72ea0029",
  "source": "pragma solidity >=0.4.21 <0.6.0;\n\ncontract HelloWorld {\n\n  int count;\n\n  constructor() public {\n    count = 0;\n  }\n\n  function increaseCount() public{\n      count += 1;\n  }\n  function decreaseCount() public{\n      count -= 1;\n  }\n\n  function getCount() public view returns (int){\n      return count;\n  }\n}\n",
  "sourcePath": "/home/matheus/github/Blockchain/Truffle-Projects/Test/contracts/Hello_Contract.sol",
  "compiler": {
    "name": "solc",
    "version": "0.5.8+commit.23d335f2.Emscripten.clang"
  },
  "schemaVersion": "3.0.15",
  "updatedAt": "2019-09-29T03:55:48.848Z",
  "devdoc": {
    "methods": {}
  },
  "userdoc": {
    "methods": {}
  }
}